{"bytecode":"608060405234801561001057600080fd5b5061084c806100206000396000f3fe608060405234801561001057600080fd5b50600436106100b45760003560e01c806385a386351161007157806385a3863514610158578063a53830e314610161578063b470aade14610181578063be9a655514610189578063c3c5a54714610191578063da58c7d9146101b457600080fd5b806309eef43e146100b957806313446a75146100f15780631aa3a008146101085780633477ee2e146101125780635216509a1461013d5780636dd7d8ea14610145575b600080fd5b6100dc6100c736600461076e565b60056020526000908152604090205460ff1681565b60405190151581526020015b60405180910390f35b6100fa60005481565b6040519081526020016100e8565b6101106101c7565b005b61012561012036600461079e565b61030c565b6040516001600160a01b0390911681526020016100e8565b6002546100fa565b61011061015336600461076e565b610336565b6100fa60015481565b6100fa61016f36600461076e565b60066020526000908152604090205481565b6100fa603c81565b61011061055b565b6100dc61019f36600461076e565b60046020526000908152604090205460ff1681565b6101256101c236600461079e565b610724565b60005442106102285760405162461bcd60e51b815260206004820152602260248201527f54686520726567697374726174696f6e20706572696f642068617320656e6465604482015261321760f11b60648201526084015b60405180910390fd5b3360009081526004602052604090205460ff16156102885760405162461bcd60e51b815260206004820152601c60248201527f596f75206861766520616c726561647920726567697374657265642e00000000604482015260640161021f565b6002805460018181019092557f405787fa12a823e0f2b7631cc41b3ba8828b3321ca811111fa75cd3aa3bb5ace0180546001600160a01b03191633908117909155600090815260046020526040808220805460ff191690931790925590517f19e5bf3a472de5062cb38c4dce94a3790b362c9dedd4605e0126aed72c2a01279190a1565b6002818154811061031c57600080fd5b6000918252602090912001546001600160a01b0316905081565b6000544210156103935760405162461bcd60e51b815260206004820152602260248201527f54686520766f74696e6720706572696f6420686173206e6f7420737461727465604482015261321760f11b606482015260840161021f565b60015442106103e45760405162461bcd60e51b815260206004820152601c60248201527f54686520766f74696e6720706572696f642068617320656e6465642e00000000604482015260640161021f565b6001600160a01b03811660009081526004602052604090205460ff1661044c5760405162461bcd60e51b815260206004820181905260248201527f5468652063616e646964617465206973206e6f7420726567697374657265642e604482015260640161021f565b3360009081526005602052604090205460ff16156104ac5760405162461bcd60e51b815260206004820152601760248201527f596f75206861766520616c726561647920766f7465642e000000000000000000604482015260640161021f565b6001600160a01b038116600090815260066020526040812080549091906104d2906107cd565b909155506003805460018181019092557fc2575a0e9e593c00f959f8c92f12db2869c3395a3b0502d05e2516446f71f85b0180546001600160a01b03191633908117909155600090815260056020526040808220805460ff191690931790925590517f6bf52ffa058bb78b287fece9896c253b3d3c1427af84d54a05c13fff9159583c9190a150565b6001544210156105ad5760405162461bcd60e51b815260206004820152601c60248201527f546865726520697320616e2061637469766520656c656374696f6e2e00000000604482015260640161021f565b6105b8603c426107e8565b60008190556105c990603c906107e8565b60015560005b60025481101561067557600060046000600284815481106105f2576105f2610800565b6000918252602080832091909101546001600160a01b031683528201929092526040018120805460ff1916921515929092179091556002805460069183918590811061064057610640610800565b60009182526020808320909101546001600160a01b0316835282019290925260400190205561066e816107cd565b90506105cf565b5060005b6003548110156106e0576000600560006003848154811061069c5761069c610800565b6000918252602080832091909101546001600160a01b031683528201929092526040019020805460ff19169115159190911790556106d9816107cd565b9050610679565b506106ed60026000610734565b6106f960036000610734565b6040517f1b55ba3aa851a46be3b365aee5b5c140edd620d578922f3e8466d2cbd96f954b90600090a1565b6003818154811061031c57600080fd5b50805460008255906000526020600020908101906107529190610755565b50565b5b8082111561076a5760008155600101610756565b5090565b60006020828403121561078057600080fd5b81356001600160a01b038116811461079757600080fd5b9392505050565b6000602082840312156107b057600080fd5b5035919050565b634e487b7160e01b600052601160045260246000fd5b60006000198214156107e1576107e16107b7565b5060010190565b600082198211156107fb576107fb6107b7565b500190565b634e487b7160e01b600052603260045260246000fdfea2646970667358221220f15b085278f47ac4be6161be9f5f8391f0350bb6f55897f866662616736f51c964736f6c63430008090033","bytecodeSha1":"46d815b6c70141a3ed52f94c7ed83e3c9019b4e6","type":"contract","abi":[{"anonymous":false,"inputs":[],"name":"Register","type":"event"},{"anonymous":false,"inputs":[],"name":"Start","type":"event"},{"anonymous":false,"inputs":[],"name":"Vote","type":"event"},{"inputs":[{"internalType":"uint256","name":"","type":"uint256"}],"name":"candidates","outputs":[{"internalType":"address","name":"","type":"address"}],"stateMutability":"view","type":"function"},{"inputs":[{"internalType":"address","name":"","type":"address"}],"name":"hasVoted","outputs":[{"internalType":"bool","name":"","type":"bool"}],"stateMutability":"view","type":"function"},{"inputs":[{"internalType":"address","name":"","type":"address"}],"name":"isRegistered","outputs":[{"internalType":"bool","name":"","type":"bool"}],"stateMutability":"view","type":"function"},{"inputs":[],"name":"numCandidates","outputs":[{"internalType":"uint256","name":"","type":"uint256"}],"stateMutability":"view","type":"function"},{"inputs":[{"internalType":"address","name":"","type":"address"}],"name":"numVotes","outputs":[{"internalType":"uint256","name":"","type":"uint256"}],"stateMutability":"view","type":"function"},{"inputs":[],"name":"periodDuration","outputs":[{"internalType":"uint256","name":"","type":"uint256"}],"stateMutability":"view","type":"function"},{"inputs":[],"name":"register","outputs":[],"stateMutability":"nonpayable","type":"function"},{"inputs":[],"name":"registrationEnd","outputs":[{"internalType":"uint256","name":"","type":"uint256"}],"stateMutability":"view","type":"function"},{"inputs":[],"name":"start","outputs":[],"stateMutability":"nonpayable","type":"function"},{"inputs":[{"internalType":"address","name":"candidate","type":"address"}],"name":"vote","outputs":[],"stateMutability":"nonpayable","type":"function"},{"inputs":[{"internalType":"uint256","name":"","type":"uint256"}],"name":"voters","outputs":[{"internalType":"address","name":"","type":"address"}],"stateMutability":"view","type":"function"},{"inputs":[],"name":"votingEnd","outputs":[{"internalType":"uint256","name":"","type":"uint256"}],"stateMutability":"view","type":"function"}],"compiler":{"version":"0.8.9+commit.e5eed63a","evm_version":"istanbul","optimizer":{"enabled":true,"runs":200}},"contractName":"Election","language":"Solidity","natspec":{"methods":{},"kind":"dev","version":1},"opcodes":"PUSH1 0x80 PUSH1 0x40 MSTORE CALLVALUE DUP1 ISZERO PUSH2 0x10 JUMPI PUSH1 0x0 DUP1 REVERT JUMPDEST POP PUSH1 0x4 CALLDATASIZE LT PUSH2 0xB4 JUMPI PUSH1 0x0 CALLDATALOAD PUSH1 0xE0 SHR DUP1 PUSH4 0x85A38635 GT PUSH2 0x71 JUMPI DUP1 PUSH4 0x85A38635 EQ PUSH2 0x158 JUMPI DUP1 PUSH4 0xA53830E3 EQ PUSH2 0x161 JUMPI DUP1 PUSH4 0xB470AADE EQ PUSH2 0x181 JUMPI DUP1 PUSH4 0xBE9A6555 EQ PUSH2 0x189 JUMPI DUP1 PUSH4 0xC3C5A547 EQ PUSH2 0x191 JUMPI DUP1 PUSH4 0xDA58C7D9 EQ PUSH2 0x1B4 JUMPI PUSH1 0x0 DUP1 REVERT JUMPDEST DUP1 PUSH4 0x9EEF43E EQ PUSH2 0xB9 JUMPI DUP1 PUSH4 0x13446A75 EQ PUSH2 0xF1 JUMPI DUP1 PUSH4 0x1AA3A008 EQ PUSH2 0x108 JUMPI DUP1 PUSH4 0x3477EE2E EQ PUSH2 0x112 JUMPI DUP1 PUSH4 0x5216509A EQ PUSH2 0x13D JUMPI DUP1 PUSH4 0x6DD7D8EA EQ PUSH2 0x145 JUMPI JUMPDEST PUSH1 0x0 DUP1 REVERT JUMPDEST PUSH2 0xDC PUSH2 0xC7 CALLDATASIZE PUSH1 0x4 PUSH2 0x76E JUMP JUMPDEST PUSH1 0x5 PUSH1 0x20 MSTORE PUSH1 0x0 SWAP1 DUP2 MSTORE PUSH1 0x40 SWAP1 KECCAK256 SLOAD PUSH1 0xFF AND DUP2 JUMP JUMPDEST PUSH1 0x40 MLOAD SWAP1 ISZERO ISZERO DUP2 MSTORE PUSH1 0x20 ADD JUMPDEST PUSH1 0x40 MLOAD DUP1 SWAP2 SUB SWAP1 RETURN JUMPDEST PUSH2 0xFA PUSH1 0x0 SLOAD DUP2 JUMP JUMPDEST PUSH1 0x40 MLOAD SWAP1 DUP2 MSTORE PUSH1 0x20 ADD PUSH2 0xE8 JUMP JUMPDEST PUSH2 0x110 PUSH2 0x1C7 JUMP JUMPDEST STOP JUMPDEST PUSH2 0x125 PUSH2 0x120 CALLDATASIZE PUSH1 0x4 PUSH2 0x79E JUMP JUMPDEST PUSH2 0x30C JUMP JUMPDEST PUSH1 0x40 MLOAD PUSH1 0x1 PUSH1 0x1 PUSH1 0xA0 SHL SUB SWAP1 SWAP2 AND DUP2 MSTORE PUSH1 0x20 ADD PUSH2 0xE8 JUMP JUMPDEST PUSH1 0x2 SLOAD PUSH2 0xFA JUMP JUMPDEST PUSH2 0x110 PUSH2 0x153 CALLDATASIZE PUSH1 0x4 PUSH2 0x76E JUMP JUMPDEST PUSH2 0x336 JUMP JUMPDEST PUSH2 0xFA PUSH1 0x1 SLOAD DUP2 JUMP JUMPDEST PUSH2 0xFA PUSH2 0x16F CALLDATASIZE PUSH1 0x4 PUSH2 0x76E JUMP JUMPDEST PUSH1 0x6 PUSH1 0x20 MSTORE PUSH1 0x0 SWAP1 DUP2 MSTORE PUSH1 0x40 SWAP1 KECCAK256 SLOAD DUP2 JUMP JUMPDEST PUSH2 0xFA PUSH1 0x3C DUP2 JUMP JUMPDEST PUSH2 0x110 PUSH2 0x55B JUMP JUMPDEST PUSH2 0xDC PUSH2 0x19F CALLDATASIZE PUSH1 0x4 PUSH2 0x76E JUMP JUMPDEST PUSH1 0x4 PUSH1 0x20 MSTORE PUSH1 0x0 SWAP1 DUP2 MSTORE PUSH1 0x40 SWAP1 KECCAK256 SLOAD PUSH1 0xFF AND DUP2 JUMP JUMPDEST PUSH2 0x125 PUSH2 0x1C2 CALLDATASIZE PUSH1 0x4 PUSH2 0x79E JUMP JUMPDEST PUSH2 0x724 JUMP JUMPDEST PUSH1 0x0 SLOAD TIMESTAMP LT PUSH2 0x228 JUMPI PUSH1 0x40 MLOAD PUSH3 0x461BCD PUSH1 0xE5 SHL DUP2 MSTORE PUSH1 0x20 PUSH1 0x4 DUP3 ADD MSTORE PUSH1 0x22 PUSH1 0x24 DUP3 ADD MSTORE PUSH32 0x54686520726567697374726174696F6E20706572696F642068617320656E6465 PUSH1 0x44 DUP3 ADD MSTORE PUSH2 0x3217 PUSH1 0xF1 SHL PUSH1 0x64 DUP3 ADD MSTORE PUSH1 0x84 ADD JUMPDEST PUSH1 0x40 MLOAD DUP1 SWAP2 SUB SWAP1 REVERT JUMPDEST CALLER PUSH1 0x0 SWAP1 DUP2 MSTORE PUSH1 0x4 PUSH1 0x20 MSTORE PUSH1 0x40 SWAP1 KECCAK256 SLOAD PUSH1 0xFF AND ISZERO PUSH2 0x288 JUMPI PUSH1 0x40 MLOAD PUSH3 0x461BCD PUSH1 0xE5 SHL DUP2 MSTORE PUSH1 0x20 PUSH1 0x4 DUP3 ADD MSTORE PUSH1 0x1C PUSH1 0x24 DUP3 ADD MSTORE PUSH32 0x596F75206861766520616C726561647920726567697374657265642E00000000 PUSH1 0x44 DUP3 ADD MSTORE PUSH1 0x64 ADD PUSH2 0x21F JUMP JUMPDEST PUSH1 0x2 DUP1 SLOAD PUSH1 0x1 DUP2 DUP2 ADD SWAP1 SWAP3 SSTORE PUSH32 0x405787FA12A823E0F2B7631CC41B3BA8828B3321CA811111FA75CD3AA3BB5ACE ADD DUP1 SLOAD PUSH1 0x1 PUSH1 0x1 PUSH1 0xA0 SHL SUB NOT AND CALLER SWAP1 DUP2 OR SWAP1 SWAP2 SSTORE PUSH1 0x0 SWAP1 DUP2 MSTORE PUSH1 0x4 PUSH1 0x20 MSTORE PUSH1 0x40 DUP1 DUP3 KECCAK256 DUP1 SLOAD PUSH1 0xFF NOT AND SWAP1 SWAP4 OR SWAP1 SWAP3 SSTORE SWAP1 MLOAD PUSH32 0x19E5BF3A472DE5062CB38C4DCE94A3790B362C9DEDD4605E0126AED72C2A0127 SWAP2 SWAP1 LOG1 JUMP JUMPDEST PUSH1 0x2 DUP2 DUP2 SLOAD DUP2 LT PUSH2 0x31C JUMPI PUSH1 0x0 DUP1 REVERT JUMPDEST PUSH1 0x0 SWAP2 DUP3 MSTORE PUSH1 0x20 SWAP1 SWAP2 KECCAK256 ADD SLOAD PUSH1 0x1 PUSH1 0x1 PUSH1 0xA0 SHL SUB AND SWAP1 POP DUP2 JUMP JUMPDEST PUSH1 0x0 SLOAD TIMESTAMP LT ISZERO PUSH2 0x393 JUMPI PUSH1 0x40 MLOAD PUSH3 0x461BCD PUSH1 0xE5 SHL DUP2 MSTORE PUSH1 0x20 PUSH1 0x4 DUP3 ADD MSTORE PUSH1 0x22 PUSH1 0x24 DUP3 ADD MSTORE PUSH32 0x54686520766F74696E6720706572696F6420686173206E6F7420737461727465 PUSH1 0x44 DUP3 ADD MSTORE PUSH2 0x3217 PUSH1 0xF1 SHL PUSH1 0x64 DUP3 ADD MSTORE PUSH1 0x84 ADD PUSH2 0x21F JUMP JUMPDEST PUSH1 0x1 SLOAD TIMESTAMP LT PUSH2 0x3E4 JUMPI PUSH1 0x40 MLOAD PUSH3 0x461BCD PUSH1 0xE5 SHL DUP2 MSTORE PUSH1 0x20 PUSH1 0x4 DUP3 ADD MSTORE PUSH1 0x1C PUSH1 0x24 DUP3 ADD MSTORE PUSH32 0x54686520766F74696E6720706572696F642068617320656E6465642E00000000 PUSH1 0x44 DUP3 ADD MSTORE PUSH1 0x64 ADD PUSH2 0x21F JUMP JUMPDEST PUSH1 0x1 PUSH1 0x1 PUSH1 0xA0 SHL SUB DUP2 AND PUSH1 0x0 SWAP1 DUP2 MSTORE PUSH1 0x4 PUSH1 0x20 MSTORE PUSH1 0x40 SWAP1 KECCAK256 SLOAD PUSH1 0xFF AND PUSH2 0x44C JUMPI PUSH1 0x40 MLOAD PUSH3 0x461BCD PUSH1 0xE5 SHL DUP2 MSTORE PUSH1 0x20 PUSH1 0x4 DUP3 ADD DUP2 SWAP1 MSTORE PUSH1 0x24 DUP3 ADD MSTORE PUSH32 0x5468652063616E646964617465206973206E6F7420726567697374657265642E PUSH1 0x44 DUP3 ADD MSTORE PUSH1 0x64 ADD PUSH2 0x21F JUMP JUMPDEST CALLER PUSH1 0x0 SWAP1 DUP2 MSTORE PUSH1 0x5 PUSH1 0x20 MSTORE PUSH1 0x40 SWAP1 KECCAK256 SLOAD PUSH1 0xFF AND ISZERO PUSH2 0x4AC JUMPI PUSH1 0x40 MLOAD PUSH3 0x461BCD PUSH1 0xE5 SHL DUP2 MSTORE PUSH1 0x20 PUSH1 0x4 DUP3 ADD MSTORE PUSH1 0x17 PUSH1 0x24 DUP3 ADD MSTORE PUSH32 0x596F75206861766520616C726561647920766F7465642E000000000000000000 PUSH1 0x44 DUP3 ADD MSTORE PUSH1 0x64 ADD PUSH2 0x21F JUMP JUMPDEST PUSH1 0x1 PUSH1 0x1 PUSH1 0xA0 SHL SUB DUP2 AND PUSH1 0x0 SWAP1 DUP2 MSTORE PUSH1 0x6 PUSH1 0x20 MSTORE PUSH1 0x40 DUP2 KECCAK256 DUP1 SLOAD SWAP1 SWAP2 SWAP1 PUSH2 0x4D2 SWAP1 PUSH2 0x7CD JUMP JUMPDEST SWAP1 SWAP2 SSTORE POP PUSH1 0x3 DUP1 SLOAD PUSH1 0x1 DUP2 DUP2 ADD SWAP1 SWAP3 SSTORE PUSH32 0xC2575A0E9E593C00F959F8C92F12DB2869C3395A3B0502D05E2516446F71F85B ADD DUP1 SLOAD PUSH1 0x1 PUSH1 0x1 PUSH1 0xA0 SHL SUB NOT AND CALLER SWAP1 DUP2 OR SWAP1 SWAP2 SSTORE PUSH1 0x0 SWAP1 DUP2 MSTORE PUSH1 0x5 PUSH1 0x20 MSTORE PUSH1 0x40 DUP1 DUP3 KECCAK256 DUP1 SLOAD PUSH1 0xFF NOT AND SWAP1 SWAP4 OR SWAP1 SWAP3 SSTORE SWAP1 MLOAD PUSH32 0x6BF52FFA058BB78B287FECE9896C253B3D3C1427AF84D54A05C13FFF9159583C SWAP2 SWAP1 LOG1 POP JUMP JUMPDEST PUSH1 0x1 SLOAD TIMESTAMP LT ISZERO PUSH2 0x5AD JUMPI PUSH1 0x40 MLOAD PUSH3 0x461BCD PUSH1 0xE5 SHL DUP2 MSTORE PUSH1 0x20 PUSH1 0x4 DUP3 ADD MSTORE PUSH1 0x1C PUSH1 0x24 DUP3 ADD MSTORE PUSH32 0x546865726520697320616E2061637469766520656C656374696F6E2E00000000 PUSH1 0x44 DUP3 ADD MSTORE PUSH1 0x64 ADD PUSH2 0x21F JUMP JUMPDEST PUSH2 0x5B8 PUSH1 0x3C TIMESTAMP PUSH2 0x7E8 JUMP JUMPDEST PUSH1 0x0 DUP2 SWAP1 SSTORE PUSH2 0x5C9 SWAP1 PUSH1 0x3C SWAP1 PUSH2 0x7E8 JUMP JUMPDEST PUSH1 0x1 SSTORE PUSH1 0x0 JUMPDEST PUSH1 0x2 SLOAD DUP2 LT ISZERO PUSH2 0x675 JUMPI PUSH1 0x0 PUSH1 0x4 PUSH1 0x0 PUSH1 0x2 DUP5 DUP2 SLOAD DUP2 LT PUSH2 0x5F2 JUMPI PUSH2 0x5F2 PUSH2 0x800 JUMP JUMPDEST PUSH1 0x0 SWAP2 DUP3 MSTORE PUSH1 0x20 DUP1 DUP4 KECCAK256 SWAP2 SWAP1 SWAP2 ADD SLOAD PUSH1 0x1 PUSH1 0x1 PUSH1 0xA0 SHL SUB AND DUP4 MSTORE DUP3 ADD SWAP3 SWAP1 SWAP3 MSTORE PUSH1 0x40 ADD DUP2 KECCAK256 DUP1 SLOAD PUSH1 0xFF NOT AND SWAP3 ISZERO ISZERO SWAP3 SWAP1 SWAP3 OR SWAP1 SWAP2 SSTORE PUSH1 0x2 DUP1 SLOAD PUSH1 0x6 SWAP2 DUP4 SWAP2 DUP6 SWAP1 DUP2 LT PUSH2 0x640 JUMPI PUSH2 0x640 PUSH2 0x800 JUMP JUMPDEST PUSH1 0x0 SWAP2 DUP3 MSTORE PUSH1 0x20 DUP1 DUP4 KECCAK256 SWAP1 SWAP2 ADD SLOAD PUSH1 0x1 PUSH1 0x1 PUSH1 0xA0 SHL SUB AND DUP4 MSTORE DUP3 ADD SWAP3 SWAP1 SWAP3 MSTORE PUSH1 0x40 ADD SWAP1 KECCAK256 SSTORE PUSH2 0x66E DUP2 PUSH2 0x7CD JUMP JUMPDEST SWAP1 POP PUSH2 0x5CF JUMP JUMPDEST POP PUSH1 0x0 JUMPDEST PUSH1 0x3 SLOAD DUP2 LT ISZERO PUSH2 0x6E0 JUMPI PUSH1 0x0 PUSH1 0x5 PUSH1 0x0 PUSH1 0x3 DUP5 DUP2 SLOAD DUP2 LT PUSH2 0x69C JUMPI PUSH2 0x69C PUSH2 0x800 JUMP JUMPDEST PUSH1 0x0 SWAP2 DUP3 MSTORE PUSH1 0x20 DUP1 DUP4 KECCAK256 SWAP2 SWAP1 SWAP2 ADD SLOAD PUSH1 0x1 PUSH1 0x1 PUSH1 0xA0 SHL SUB AND DUP4 MSTORE DUP3 ADD SWAP3 SWAP1 SWAP3 MSTORE PUSH1 0x40 ADD SWAP1 KECCAK256 DUP1 SLOAD PUSH1 0xFF NOT AND SWAP2 ISZERO ISZERO SWAP2 SWAP1 SWAP2 OR SWAP1 SSTORE PUSH2 0x6D9 DUP2 PUSH2 0x7CD JUMP JUMPDEST SWAP1 POP PUSH2 0x679 JUMP JUMPDEST POP PUSH2 0x6ED PUSH1 0x2 PUSH1 0x0 PUSH2 0x734 JUMP JUMPDEST PUSH2 0x6F9 PUSH1 0x3 PUSH1 0x0 PUSH2 0x734 JUMP JUMPDEST PUSH1 0x40 MLOAD PUSH32 0x1B55BA3AA851A46BE3B365AEE5B5C140EDD620D578922F3E8466D2CBD96F954B SWAP1 PUSH1 0x0 SWAP1 LOG1 JUMP JUMPDEST PUSH1 0x3 DUP2 DUP2 SLOAD DUP2 LT PUSH2 0x31C JUMPI PUSH1 0x0 DUP1 REVERT JUMPDEST POP DUP1 SLOAD PUSH1 0x0 DUP3 SSTORE SWAP1 PUSH1 0x0 MSTORE PUSH1 0x20 PUSH1 0x0 KECCAK256 SWAP1 DUP2 ADD SWAP1 PUSH2 0x752 SWAP2 SWAP1 PUSH2 0x755 JUMP JUMPDEST POP JUMP JUMPDEST JUMPDEST DUP1 DUP3 GT ISZERO PUSH2 0x76A JUMPI PUSH1 0x0 DUP2 SSTORE PUSH1 0x1 ADD PUSH2 0x756 JUMP JUMPDEST POP SWAP1 JUMP JUMPDEST PUSH1 0x0 PUSH1 0x20 DUP3 DUP5 SUB SLT ISZERO PUSH2 0x780 JUMPI PUSH1 0x0 DUP1 REVERT JUMPDEST DUP2 CALLDATALOAD PUSH1 0x1 PUSH1 0x1 PUSH1 0xA0 SHL SUB DUP2 AND DUP2 EQ PUSH2 0x797 JUMPI PUSH1 0x0 DUP1 REVERT JUMPDEST SWAP4 SWAP3 POP POP POP JUMP JUMPDEST PUSH1 0x0 PUSH1 0x20 DUP3 DUP5 SUB SLT ISZERO PUSH2 0x7B0 JUMPI PUSH1 0x0 DUP1 REVERT JUMPDEST POP CALLDATALOAD SWAP2 SWAP1 POP JUMP JUMPDEST PUSH4 0x4E487B71 PUSH1 0xE0 SHL PUSH1 0x0 MSTORE PUSH1 0x11 PUSH1 0x4 MSTORE PUSH1 0x24 PUSH1 0x0 REVERT JUMPDEST PUSH1 0x0 PUSH1 0x0 NOT DUP3 EQ ISZERO PUSH2 0x7E1 JUMPI PUSH2 0x7E1 PUSH2 0x7B7 JUMP JUMPDEST POP PUSH1 0x1 ADD SWAP1 JUMP JUMPDEST PUSH1 0x0 DUP3 NOT DUP3 GT ISZERO PUSH2 0x7FB JUMPI PUSH2 0x7FB PUSH2 0x7B7 JUMP JUMPDEST POP ADD SWAP1 JUMP JUMPDEST PUSH4 0x4E487B71 PUSH1 0xE0 SHL PUSH1 0x0 MSTORE PUSH1 0x32 PUSH1 0x4 MSTORE PUSH1 0x24 PUSH1 0x0 REVERT INVALID LOG2 PUSH5 0x6970667358 0x22 SLT KECCAK256 CALL JUMPDEST ADDMOD MSTORE PUSH25 0xF47AC4BE6161BE9F5F8391F0350BB6F55897F866662616736F MLOAD 0xC9 PUSH5 0x736F6C6343 STOP ADDMOD MULMOD STOP CALLER ","sha1":"1f7ef6c4f01ceb200a35ecff87ce11f0b4a9a5bd","source":"// SPDX-License-Identifier: MIT\npragma solidity 0.8.9;\n\ncontract Election {\n    uint public constant periodDuration = 60; // 1 min\n\n    uint public registrationEnd;\n    uint public votingEnd;\n\n    address[] public candidates;\n    address[] public voters;\n\n    mapping(address => bool) public isRegistered;\n    mapping(address => bool) public hasVoted;\n    mapping(address => uint) public numVotes;\n\n    event Start();\n    event Register();\n    event Vote();\n\n    function numCandidates() public view returns (uint) {\n        return candidates.length;\n    }\n\n    function start() public {\n        require(block.timestamp >= votingEnd, 'There is an active election.');\n\n        // calculate period end times\n        registrationEnd = block.timestamp + periodDuration;\n        votingEnd = registrationEnd + periodDuration;\n\n        // reset candidate mappings\n        for (uint i = 0; i < candidates.length; ++i) {\n            isRegistered[candidates[i]] = false;\n            numVotes[candidates[i]] = 0;\n        }\n\n        // reset voter mappings\n        for (uint i = 0; i < voters.length; ++i) {\n            hasVoted[voters[i]] = false;\n        }\n\n        // reset arrays\n        delete candidates;\n        delete voters;\n\n        emit Start();\n    }\n\n    function register() public {\n        require(block.timestamp < registrationEnd, 'The registration period has ended.');\n        require(!isRegistered[msg.sender], 'You have already registered.');\n\n        // register candidate\n        candidates.push(msg.sender);\n        isRegistered[msg.sender] = true;\n\n        emit Register();\n    }\n\n    function vote(address candidate) public {\n        require(block.timestamp >= registrationEnd, 'The voting period has not started.');\n        require(block.timestamp < votingEnd, 'The voting period has ended.');\n        require(isRegistered[candidate], 'The candidate is not registered.');\n        require(!hasVoted[msg.sender], 'You have already voted.');\n\n        // process vote\n        ++numVotes[candidate];\n        voters.push(msg.sender);\n        hasVoted[msg.sender] = true;\n\n        emit Vote();\n    }\n}\n","sourcePath":"contracts/Election.sol","deployment":{"address":"0x7cB40bd0CB8a91C9035578f8c28C0af9F4805968","chainid":"42","blockHeight":28296480}}